S01700004153475F345F496E746572727075742E7372656373
S11300000C942A000C9404020C943C000C945702A7
S11300100C943C000C943C000C943C000C943C006C
S11300200C943C000C943C000C943C000C943C005C
S11300300C943C000C943C000C943C000C943C004C
S11300400C943C000C943C000C943C000C943C003C
S11300500C943C0011241FBECFE5D8E0DEBFCDBF19
S113006020E0A0E6B0E001C01D92A336B207E1F79C
S11300700E94CE010C94AA020C940000843008F073
S113008072C0683008F06FC0423008F06CC0813034
S113009001F130F08230B1F1833009F44CC008959D
S11300A0413059F42AB381E090E002C0880F991FCF
S11300B06A95E2F7822B8ABB08952AB381E090E027
S11300C002C0880F991F6A95E2F7809582238ABB44
S11300D00895413059F427B381E090E002C0880FBD
S11300E0991F6A95E2F7822B87BB089527B381E0B5
S11300F090E002C0880F991F6A95E2F780958223E9
S113010087BB0895413059F424B381E090E002C0E4
S1130110880F991F6A95E2F7822B84BB089524B354
S113012081E090E002C0880F991F6A95E2F78095FC
S1130130822384BB0895413059F421B381E090E0D7
S113014002C0880F991F6A95E2F7822B81BB08953C
S113015021B381E090E002C0880F991F6A95E2F70D
S11301608095822381BB0895843008F072C0683082
S113017008F06FC0423008F06CC0813001F130F0FB
S11301808230B1F1833009F44CC00895413059F400
S11301902BB381E090E002C0880F991F6A95E2F7C3
S11301A0822B8BBB08952BB381E090E002C0880FB3
S11301B0991F6A95E2F7809582238BBB089541309D
S11301C059F428B381E090E002C0880F991F6A9522
S11301D0E2F7822B88BB089528B381E090E002C047
S11301E0880F991F6A95E2F78095822388BB08954A
S11301F0413059F425B381E090E002C0880F991F83
S11302006A95E2F7822B85BB089525B381E090E0DF
S113021002C0880F991F6A95E2F78095822385BBF7
S11302200895413059F422B381E090E002C0880F70
S1130230991F6A95E2F7822B82BB089522B381E06D
S113024090E002C0880F991F6A95E2F78095822397
S113025082BB08958430C0F56830B0F5411551056E
S113026099F1813089F028F08230C9F0833011F19E
S1130270089589B390E002C0959587956A95E2F751
S11302808170FA018083089586B390E002C0959549
S113029087956A95E2F78170FA018083089583B3A4
S11302A090E002C0959587956A95E2F78170FA010E
S11302B08083089580B390E002C0959587956A95F0
S11302C0E2F78170FA0180830895813061F120F0B2
S11302D0823009F44FC00895613069F028F062302B
S11302E089F06330B1F01BC085B7816085BF85B7E5
S11302F0826085BF14C085B78E7F85BF85B7826055
S113030085BF0DC085B78E7F85BF85B78D7F85BFBF
S113031006C085B7816085BF85B78D7F85BF8BB7E4
S113032080648BBF0895613069F028F0623089F0F1
S11303306330B1F01BC085B7846085BF85B7886022
S113034085BF14C085B78B7F85BF85B7886085BF9F
S11303500DC085B78B7F85BF85B7877F85BF06C0F6
S113036085B7846085BF85B7877F85BF8BB7806875
S11303708BBF0895662319F0613029F007C084B754
S1130380806484BF03C084B78F7B84BF8BB78062D3
S11303908BBF08958FB780688FBF089541E062E0F6
S11303A082E00E943E0041E067E082E00E943E005D
S11303B041E063E083E00E943E0040E062E083E0CD
S11303C00E943E0040E062E081E00E943E000E9404
S11303D0CA0160E080E00E94650160E082E00E9462
S11303E0650142E650E062E082E00E942A0141E6B3
S11303F050E067E082E00E942A0140E650E063E0BA
S113040083E00E942A01EDCF1F920F920FB60F9244
S113041011242F933F934F935F936F937F938F9305
S11304209F93AF93BF93EF93FF93809162008111E9
S11304300EC09091610091110AC0909160009111D9
S113044006C041E062E082E00E94B4001FC0813037
S113045071F49091610091110AC090916000911122
S113046006C041E067E082E00E94B4000FC0813022
S113047069F480916100813049F4809160008111B8
S113048005C041E063E083E00E94B400FF91EF9176
S1130490BF91AF919F918F917F916F915F914F9198
S11304A03F912F910F900FBE0F901F9018951F92A0
S11304B00F920FB60F9211242F933F934F935F9394
S11304C06F937F938F939F93AF93BF93EF93FF9318
S11304D080916200813071F490916100913051F407
S11304E090916000913031F440E063E083E00E9439
S11304F0B4001FC0813071F490916100913051F4C7
S113050090916000911106C040E067E082E00E9493
S1130510B4000FC0813069F480916100811109C079
S113052080916000811105C040E062E082E00E9499
S1130530B400FF91EF91BF91AF919F918F917F9103
S11305406F915F914F913F912F910F900FBE0F903C
S10B05501F901895F894FFCFE9
S9030000FC
